:100000000C9462000C948A000C948A000C948A0070
:100010000C948A000C948A000C948A000C948A0038
:100020000C948A000C948A000C948A000C94910819
:100030000C948A000C948A000C948A000C948A0018
:100040000C948C0A0C948A000C948A000C948A00FC
:100050000C948A000C948A000C948A000C948A00F8
:100060000C948A000C948A00000000080002010031
:100070000003040700000000000000000102040863
:100080001020408001020408102001020408102002
:10009000040404040404040402020202020203032E
:1000A00003030303000000002300260029000000D2
:1000B0000000250028002B0000000000240027007D
:1000C0002A00A90311241FBECFEFD8E0DEBFCDBFA9
:1000D00012E0A0E0B1E0EEECFAE102C005900D9272
:1000E000AA3CB107D9F723E0AAECB2E001C01D9207
:1000F000A439B207E1F710E0C4ECD0E004C02297C5
:10010000FE010E943C0DC23CD107C9F70E94340C8D
:100110000C94650D0C9400000F931F93CF93DF9305
:1001200061E083E10E949B0B61E08DE00E949B0BEC
:1001300061E083E10E94D40B62E170E081E693E02C
:100140000E94E70920E042E060E189E493E00E9438
:10015000AA076AE570E081E693E00E94200A40E089
:1001600060E089E493E00E9490076CE171E089E42B
:1001700093E00E94810C41E065E089E493E00E94F5
:1001800090076CE271E089E493E00E94810C809119
:10019000D9028A3519F141E360E070E08AE893E022
:1001A0000E94880A42E361E070E08AE893E00E94DE
:1001B000880A43E362E070E08AE893E00E94880ADC
:1001C00044E363E070E08AE893E00E94880A4AE52D
:1001D00064E070E08AE893E00E94880A05ED12E08E
:1001E000C0E0D0E0BE018AE893E00E94850AF801F1
:1001F00081938F012196C530D105A1F7DF91CF9171
:100200001F910F9108951F93CF93DF93182FC62F3F
:10021000D42F89E493E00E949007612F89E493E052
:100220000E94830C64E670E080E090E00E94050B81
:100230004D2F6C2F89E493E00E94900768EA72E0EA
:1002400089E493E0DF91CF911F910C94810C813070
:10025000910589F4E5EDF2E0A0EDB2E020E030E0B8
:1002600091918D91981302C02F5F3F4F82E0E93D3D
:10027000F807B1F715C0029789F4E0EDF2E0ACECB5
:10028000B2E020E030E091918D91981302C02F5F91
:100290003F4F82E0E43DF807B1F702C020E030E0D4
:1002A00081E090E02430310511F080E090E0089585
:1002B00040E060E089E493E00E9490076CE171E027
:1002C00089E493E00E94810C41E065E089E493E0D9
:1002D0000E9490076CE271E089E493E00E94810C37
:1002E0001092D0021092CC021092D1021092CD0244
:1002F0001092D2021092CE021092D3021092CF022C
:100300001092CB021092CA02089540E060E089E4A6
:1003100093E00E94900762E471E089E493E00E9418
:10032000810C64EF71E080E090E00C94050B40E0FC
:1003300060E089E493E00E94900764E571E089E45D
:1003400093E00E94810C64EF71E080E090E00C94F7
:10035000050B40E060E089E493E00E94900768E6C6
:1003600071E089E493E00E94810C68EC70E080E029
:1003700090E00E94050B40E060E089E493E00E9479
:10038000900769E771E089E493E00E94810C68ECD2
:1003900070E080E090E00E94050B40E060E089E4BE
:1003A00093E00E9490076DE871E089E493E00E9479
:1003B000810C68EC70E080E090E00E94050B40E06A
:1003C00060E089E493E00E9490076EE971E089E4BF
:1003D00093E00E94810C68EC70E080E090E00C9467
:1003E000050B0F931F93CF93DF9340E060E089E408
:1003F00093E00E94900764EB71E089E493E00E942F
:10040000810C68EC70E080E090E00E94050B40E019
:1004100060E089E493E00E94900764EC71E089E475
:1004200093E00E94810C68EC70E080E090E00E9414
:10043000050B40E060E089E493E00E94900765EDE1
:1004400071E089E493E00E94810C68EC70E080E048
:1004500090E00E94050B0E9458018091D302811107
:1004600005C081E090E00E942903F7CF81E090E091
:100470000E942701019709F0E4C040E060E089E4B0
:1004800093E00E94900766EE71E089E493E00E9499
:10049000810C68EC70E080E090E00E94050B40E089
:1004A00060E089E493E00E94900760EF71E089E4E6
:1004B00093E00E94810C68EC70E080E090E00E9484
:1004C000050B0E9458018091D302811105C081E083
:1004D00090E00E942903F7CF40E060E089E493E0D8
:1004E0000E9490076AE072E089E493E00E94810C28
:1004F00068EC70E080E090E00E94050B40E060E076
:1005000089E493E00E9490076EE172E089E493E051
:100510000E94810C68EC70E080E090E00E94050B86
:1005200040E060E089E493E00E9490076FE272E0AF
:1005300089E493E00E94810C41E065E089E493E066
:100540000E9490076CE271E089E493E00E94810CC4
:1005500040E060E089E493E00E9490071092CB02B3
:100560001092CA028091CF02811105C082E090E012
:100570000E942903F7CF82E090E00E9427010197B3
:10058000D9F500ED12E0C0E0D0E0F80141918F0113
:10059000BE018AE893E00E94880A2196C430D10502
:1005A000A1F705ED12E0C0E0D0E0BE018AE893E0DB
:1005B0000E94850AF80181938F012196C430D105EC
:1005C000A1F740E060E089E493E00E94900764E4D2
:1005D00072E089E493E00E94810C68EC70E080E0B6
:1005E00090E00E94050B40E060E089E493E00E9407
:1005F000900766E572E01AC040E060E089E493E0AD
:100600000E94900767E672E089E493E00E94810C03
:1006100068EC70E080E090E00E94050B40E060E054
:1006200089E493E00E94900769E772E089E493E02F
:100630000E94810C68EC70E080E090E00E94050B65
:1006400002C00E948501DF91CF911F910F910C9400
:100650005801CF93DF93EC018AED92E00E94B90636
:100660008093D402882309F46DC08134E9F074F4D6
:10067000833261F18A3209F03FC040E060E089E4F2
:1006800093E00E9490076CE972E028C08334D9F0AF
:10069000BCF0843489F540E060E089E493E00E9496
:1006A00090076EE872E01AC081E090E00E94270196
:1006B000019719F40E9497011BC00E94850118C080
:1006C0000E94A90115C00E94F10112C040E060E043
:1006D00089E493E00E9490076AEA72E089E493E07B
:1006E0000E94810C6CE271E080E090E00E94050BBA
:1006F000DF91CF910C9458016091CA027091CB02A6
:10070000C130D10521F4FB01E053FD4F05C0229714
:1007100051F4FB01E453FD4F80836B5F7F4F41E059
:1007200050E00E9403018091CA029091CB02019691
:100730009093CB028093CA02049724F01092CB02CC
:100740001092CA02DF91CF91089581E090E00C945D
:100750002903CF92EF920F9381E693E00E944D0917
:1007600087E0C82E96E0E92E05E024E043E062E051
:1007700089E493E00E94650824E0E22E04E024E18D
:1007800031E048E151E064E071E08AED92E00E94DE
:10079000D8030F91EF90CF900895862F642F0C947B
:1007A0009B0B862F642F0C94D40B862F0C940A0C71
:1007B0004F925F926F927F928F929F92AF92BF9271
:1007C000CF92DF92EF920F93CF93DF93EC014B0127
:1007D0003A01590102960E94DA068CEB92E0998365
:1007E00088836E018CE1C80ED11C26018CE3480E73
:1007F000511CC6010E94DA0686E0C80ED11CC41442
:10080000D504B9F7FE01EE59FF4F7182608232962E
:10081000B182A082329600833196E082379791822E
:10082000808238968AE090E091838083329684EFCC
:1008300091E09183808333961182108271971082A8
:10084000118212821382C459DF4F1882DF91CF9137
:100850000F91EF90DF90CF90BF90AF909F908F90CF
:100860007F906F905F904F9008952F923F924F929C
:100870005F926F927F928F929F92AF92BF92CF9230
:10088000DF92EF92FF920F931F93CF93DF93CDB739
:10089000DEB728970FB6F894DEBF0FBECDBF98879E
:1008A0008F83F12C4C0186E6880E911C0F811885F0
:1008B0000E591F4FD4018C91F816A0F4AF81B88562
:1008C0008D919C91F801A081B181AF0DB11DFC010A
:1008D0002081318142E06C918F819885F9010995E1
:1008E000F394E8CF512CEF81F885E959FF4FFA8353
:1008F000E9830F8118850C591F4FC12CD12C76012B
:10090000C3948F8198858E599F4F9C838B83A98137
:10091000BA818C91581608F088C0A52CB12CAF81F3
:10092000B8858D919C91F801A081B181AA0DBB1D64
:10093000FC012081318141E06C918F819885F90122
:100940000995AF81B8858D919C91F801A081B18105
:10095000AA0DBB1DFC012281338140E06C918F8187
:100960009885F9010995D701C601052C04C0880FA7
:10097000991FAA1FBB1F0A94D2F79C011C01209447
:100980003094412CD4018C91EF81F88540815181C4
:10099000481648F5642C712CEB81FC81A081B18153
:1009A000A60DB71DFA01448155816C918F81988500
:1009B0002D833E83FA010995660C771C2D813E81BB
:1009C000EF81F885E60DF71D892B29F48085918547
:1009D000822B932B04C0808591858221932191875E
:1009E00080874394CFCFF801A081B181AA0DBB1DB0
:1009F000FA012281338141E06C918F819885F90160
:100A00000995AF81B8858D919C91F801A081B18144
:100A1000AA0DBB1DFC012081318140E06C918F81CA
:100A20009885F9010995539472CF28960FB6F894DA
:100A3000DEBF0FBECDBFDF91CF911F910F91FF9011
:100A4000EF90DF90CF90BF90AF909F908F907F906E
:100A50006F905F904F903F902F900895FC0180E041
:100A600090E0258D368D2617370739F0019636969A
:100A70008A309105B1F78FEF9FEF0895DC0126E0F2
:100A8000629FA00DB11D112490965C934E935F97C9
:100A900021E091962C939197FC01E459FF4F20811E
:100AA00031960190F081E02D222331F0309749F00A
:100AB000611107C0DC0102C0309719F05C968C917F
:100AC00009940895CF92DF92FF920F931F93CF93D3
:100AD000DF931F92CDB7DEB76C01F62EFC0186E0E6
:100AE000689FE00DF11D112411A2878D90A1813026
:100AF0009105F1F01CF4892B51F046C0823091052C
:100B000099F1039709F040C040E050E031C0442320
:100B1000D9F141E050E0C6010E943E050E94D60A8C
:100B2000F601E85AFF4F60837183828393832CC060
:100B300049830E94D60AF601E85AFF4F00811181CD
:100B400022813381601B710B820B930B72960081A3
:100B5000118120E030E0498106171707280739077F
:100B600018F442E050E004C041110EC043E050E0F0
:100B70006F2DC6010F90DF91CF911F910F91FF90C4
:100B8000DF90CF900C943E050F90DF91CF911F9195
:100B90000F91FF90DF90CF9008952F923F924F9248
:100BA0005F926F927F928F929F92AF92BF92CF92FD
:100BB000DF92EF92FF920F931F93CF93DF931F92D9
:100BC000CDB7DEB71C01FC014AE08FEF9FEF278D08
:100BD00030A1232B21F4148E968F858F11A24150C2
:100BE00036964111F4CF712C610126E6C20ED11C5C
:100BF000510187E6A80EB11C4101A0E68A0E911CA6
:100C000046E0442ED6018C91781608F055C0612C30
:100C10008101070D111D070D111D085F1F4FF50103
:100C2000E0806E1408F046C0F80140815181062C26
:100C300002C0569547950A94E2F741707E9C700178
:100C40001124E60CF11CD401ED91FC91EE0DFF1D79
:100C50005080B701C10149830E942E05498197FD4B
:100C600002C0682F1BC0019619F5442309F180E0EA
:100C700090E060E070E0F101E80FF91F248D211190
:100C800011C0469EF001479EF00D1124E20DF31DA8
:100C9000548EF68EE58E10A2178E41E0C1010E949F
:100CA000620506C06F5F7F4F06966A30710519F7BF
:100CB0006394B5CF7394A6CF20E030E080E0F101DB
:100CC000E20FF31F91A1911181E02A5F3F4F2C3376
:100CD0003105A9F70F90DF91CF911F910F91FF90F0
:100CE000EF90DF90CF90BF90AF909F908F907F90CC
:100CF0006F905F904F903F902F900895CF92DF922A
:100D0000EF92FF920F931F93CF93DF938C010E947A
:100D1000D60AE801C45ADF4FC880D980EA80FB8038
:100D20006C197D098E099F09F801E859FF4FC080B1
:100D3000D180E12CF12CC616D706E806F90670F42E
:100D4000C8010E943504C8010E94CD05182F0E94D9
:100D5000D60A688379838A839B8301C010E0812F40
:100D6000DF91CF911F910F91FF90EF90DF90CF9087
:100D700008950F931F93CF93DF93EC018C010459D7
:100D80001F4F81E0F8018083CE010E947E068823F8
:100D900049F089A1882331F08F8D98A1019711F432
:100DA0008C8D03C0F801108280E0DF91CF911F91FC
:100DB0000F910895FC011082148213821582089508
:100DC000CF93DF93EC0160E08E810E94D40B81E031
:100DD00090E00E942D0B61E08E810E94D40B81E097
:100DE00090E00E942D0B60E08E810E94D40B84E67F
:100DF00090E0DF91CF910C942D0BCF92DF92EF9288
:100E0000FF920F931F93CF93DF937C01C0E0D0E05C
:100E1000C62ED12C87010C0F1D1F61E0F8018781C0
:100E20000E949B0BB6010C2E02C0759567950A9423
:100E3000E2F76170F80187810E94D40B2196C430DB
:100E4000D10541F7C701DF91CF911F910F91FF901D
:100E5000EF90DF90CF900C94E006CF92DF92EF926C
:100E6000FF920F931F93CF93DF937C01C0E0D0E0FC
:100E7000C62ED12C87010C0F1D1F61E0F801878160
:100E80000E949B0BB6010C2E02C0759567950A94C3
:100E9000E2F76170F80187810E94D40B2196C83077
:100EA000D10541F7C701DF91CF911F910F91FF90BD
:100EB000EF90DF90CF900C94E0061F93CF93DF93D9
:100EC000EC01162F642F8C810E94D40B8D818F3FF3
:100ED00019F060E00E94D40B8F85612F84FF06C05B
:100EE000CE01DF91CF911F910C942D0770E084E02B
:100EF000759567958A95E1F7CE010E94FD06612FF1
:100F0000CE01DF91CF911F910C94FD0640E00C942F
:100F10005D0761E00E94860780ED97E00C942D0B41
:100F2000443008F043E0FC012389421710F04FEFF2
:100F3000420FFC01E40FF11D2489260F2068622F67
:100F40000C948607FC016089262F2460208B6C603E
:100F50000C948607CF93DF93EC01423018F08F8515
:100F600088608F874B8B1C8A80E48D8B6E8B70E042
:100F7000605C7F4F6F8B222329F0413019F48F85FD
:100F800084608F8780E593EC0E942D0B60E08C815C
:100F90000E94D40B60E08E810E94D40B8D818F3F24
:100FA00019F060E00E94D40B6F8564FD1DC063E002
:100FB000CE010E94FD0684E991E10E942D0B63E0C1
:100FC000CE010E94FD0684E991E10E942D0B63E0B1
:100FD000CE010E94FD0686E990E00E942D0B62E0A2
:100FE000CE010E94FD0616C06062CE010E948607F7
:100FF00084E991E10E942D0B6F856062CE010E9411
:10100000860786E990E00E942D0B6F856062CE0115
:101010000E9486076F856062CE010E94860784E089
:10102000888BCE010E94A207CE010E94890782E030
:10103000898B66E0CE01DF91CF910C9486076F9289
:101040007F928F92AF92CF92EF920F931F93CF9395
:10105000DF93CDB7DEB73C01162F842F5D854E851B
:101060003F859889F301848325830683E782C086C0
:10107000A1868286538744873587968761E00E94E0
:101080009B0BF30185818F3F19F061E00E949B0B60
:1010900061E0F30186810E949B0B112319F0F3019B
:1010A000178603C080E1F301878720E041E060E11B
:1010B000C301DF91CF911F910F91EF90CF90AF902F
:1010C0008F907F906F900C94AA078F92AF92CF92DF
:1010D000EF920F93DC0113961C921E921297E6EC8E
:1010E000F2E0ED93FC931F921F921F921F928C2CA3
:1010F000AE2CC02EE22E042F2FEF462F61E00E946F
:101100001F080F900F900F900F900F91EF90CF90BE
:10111000AF908F90089541E00E945D0781E090E0DC
:1011200008951F920F920FB60F9211242F933F93A1
:101130004F935F936F937F938F939F93AF93BF93DF
:10114000EF93FF938091650387FF05C010928500A0
:10115000109284001AC020916503332727FD309533
:101160008091640390E0281739077CF4809165032F
:10117000992787FD9095FC01EE0FFF1FE80FF91FDF
:10118000EA59FC4F808186FD15C0809165038F5F11
:101190008093650320916503332727FD3095809167
:1011A000640390E028173907BCF4809165038C3004
:1011B0005CF112C080916503992787FD9095FC0131
:1011C000EE0FFF1FE80FF91FEA59FC4F808160E026
:1011D0008F730E94D40BD9CF8091840090918500A9
:1011E000049680349C4918F480E49CE905C0809101
:1011F00084009091850004969093890080938800E4
:101200008FEF8093650338C0209184003091850072
:1012100080916503992787FD9095FC01EE0FFF1FD4
:10122000E80FF91FEA59FC4F81819281820F931FC9
:10123000909389008093880080916503992787FDAA
:101240009095FC01EE0FFF1FE80FF91FEA59FC4FC4
:10125000808186FF11C080916503992787FD909555
:10126000FC01EE0FFF1FE80FF91FEA59FC4F8081C8
:1012700061E08F730E94D40BFF91EF91BF91AF910A
:101280009F918F917F916F915F914F913F912F919E
:101290000F900FBE0F901F901895209164032C3073
:1012A000A0F431E0320F30936403FC012083822FDD
:1012B00090E0FC01EE0FFF1FE80FF91FEA59FC4F09
:1012C00088EB9BE09283818308952FEFFC012083BC
:1012D0000895DF92EF92FF920F931F93CF93DF93C6
:1012E000EC01D62E7A01890188818C3008F066C025
:1012F00061E08D2D0E949B0B8881A82FB0E0FD013D
:10130000EE0FFF1FEA0FFB1FEA59FC4F2D2D2F7325
:101310009081907C922B908360E272E06E197F093D
:1013200077FF02C06D5F7F4F7595679575956795DF
:10133000698340E659E0401B510B57FF02C04D5FE7
:101340005F4F55954795559547954A836CE00E94A8
:10135000E20C9CE0899FB001112420E030E0A9015B
:10136000460F571FFA01EE0FFF1FE40FF51FEA5952
:10137000FC4F908196FD16C02F5F3F4F2C303105FA
:1013800071F781110FC01092800082E0809381007C
:101390001092850010928400B19A80916F00826053
:1013A00080936F00888190E0FC01EE0FFF1FE80F33
:1013B000F91FEA59FC4F8081806480838881DF9126
:1013C000CF911F910F91FF90EF90DF90089520E64D
:1013D00039E040E252E00C946909FC0180818C30D4
:1013E00070F5918128E830E0291B310997FD33958C
:1013F000220F331F220F331F621773077CF0928175
:1014000028E532E0291B310997FD3395220F331F60
:10141000220F331F621773070CF49B01225031090E
:10142000220F331F4FB7F89490E0FC01EE0FFF1F1F
:10143000E80FF91FEA59FC4F328321834FBF08950B
:101440004F925F926F927F92AF92BF92CF92DF9254
:10145000EF92FF920F931F93CF93DF93EC016032D3
:1014600082E078070CF040C077FD06C0653B71054F
:101470002CF064EB70E002C060E070E0898128E845
:1014800030E0281B310987FD3395220F331F220FCF
:10149000331F5901CC24B7FCC094DC2C882777FD7E
:1014A0008095982F2A8148E552E0421B510927FD7B
:1014B0005395440F551F440F551F2A01662457FCAE
:1014C0006094762C7F926F925F924F9214EBE12E94
:1014D000F12C00E010E020E030E0A9010E948A0C2D
:1014E0000F900F900F900F90CE01DF91CF911F9131
:1014F0000F91FF90EF90DF90CF90BF90AF907F90D3
:101500006F905F904F900C94ED09CB010C944F0DB0
:10151000CB01642F0C94570D1F920F920FB60F92B0
:1015200011242F933F938F939F93AF93BF938091F9
:101530008C0390918D03A0918E03B0918F03309115
:101540008B0323E0230F2D3720F40196A11DB11D3D
:1015500005C026E8230F0296A11DB11D20938B0321
:1015600080938C0390938D03A0938E03B0938F038D
:101570008091900390919103A0919203B091930375
:101580000196A11DB11D8093900390939103A093A8
:101590009203B0939303BF91AF919F918F913F912D
:1015A0002F910F900FBE0F901F9018952FB7F894A2
:1015B00060918C0370918D0380918E0390918F03C5
:1015C0002FBF08953FB7F8948091900390919103B5
:1015D000A0919203B091930326B5A89B05C02F3F1D
:1015E00019F00196A11DB11D3FBF6627782F892FE5
:1015F0009A2F620F711D811D911D42E0660F771FAA
:10160000881F991F4A95D1F70895CF92DF92EF92E4
:10161000FF92CF93DF936B017C010E94E20AEB0102
:10162000C114D104E104F10489F00E94D10C0E949C
:10163000E20A6C1B7D0B683E734090F381E0C81A90
:10164000D108E108F108C851DC4FEACFDF91CF9112
:10165000FF90EF90DF90CF900895019739F0880FB9
:10166000991F880F991F02970197F1F708957894B1
:1016700084B5826084BD84B5816084BD85B5826097
:1016800085BD85B5816085BDEEE6F0E08081816035
:101690008083E1E8F0E01082808182608083808135
:1016A00081608083E0E8F0E0808181608083E1EB0D
:1016B000F0E0808184608083E0EBF0E080818160F5
:1016C0008083EAE7F0E080818460808380818260AB
:1016D0008083808181608083808180688083109294
:1016E000C1000895833081F028F4813099F0823070
:1016F000A1F008958730A9F08830B9F08430D1F492
:10170000809180008F7D03C0809180008F778093CF
:101710008000089584B58F7702C084B58F7D84BD25
:1017200008958091B0008F7703C08091B0008F7DC5
:101730008093B0000895CF93DF9390E0FC01E458CC
:10174000FF4F2491FC01E057FF4F8491882349F11A
:1017500090E0880F991FFC01E854FF4FA591B491C8
:1017600082559F4FFC01C591D4919FB7611108C06C
:10177000F8948C91209582238C93888182230AC0CF
:10178000623051F4F8948C91322F309583238C93EE
:101790008881822B888304C0F8948C91822B8C934F
:1017A0009FBFDF91CF9108950F931F93CF93DF9346
:1017B0001F92CDB7DEB7282F30E0F901E859FF4F6F
:1017C0008491F901E458FF4F1491F901E057FF4F5C
:1017D00004910023C9F0882321F069830E94720BD1
:1017E0006981E02FF0E0EE0FFF1FE255FF4FA5915A
:1017F000B4919FB7F8948C91611103C01095812327
:1018000001C0812B8C939FBF0F90DF91CF911F91CF
:101810000F910895CF93DF93282F30E0F901E85915
:10182000FF4F8491F901E458FF4FD491F901E0573B
:10183000FF4FC491CC2391F081110E94720BEC2FC9
:10184000F0E0EE0FFF1FEC55FF4FA591B4912C91E6
:101850002D2381E090E021F480E002C080E090E060
:10186000DF91CF91089508950E94370B0E94330CA9
:101870000E948C00C0E0D0E00E94A5032097E1F315
:101880000E940000F9CFCF92DF92EF92FF920F9368
:101890001F93CF93DF936C017A01EB01E60EF71EE5
:1018A00000E010E0CE15DF0561F06991D601ED9101
:1018B000FC910190F081E02DC6010995080F191FD8
:1018C000F1CFC801DF91CF911F910F91FF90EF9061
:1018D000DF90CF9008956115710581F0DB010D90C7
:1018E0000020E9F7AD0141505109461B570BDC01BF
:1018F000ED91FC910280F381E02D099480E090E06D
:1019000008950C946B0CDC01ED91FC910190F08139
:10191000E02D09944F925F926F927F92AF92BF92A7
:10192000CF92DF92EF92FF920F931F93CF93DF93AB
:10193000CDB7DEB729013A01621B730B840B950BFF
:1019400029893A894B895C892A193B094C095D0927
:10195000298B3A8B4B8B5C8B9B01AC0169897A8913
:101960008B899C890E94D20CE418F5080609170996
:10197000A80197010E94100D2A0D3B1D4C1D5D1DF5
:10198000CA01B901DF91CF911F910F91FF90EF90A4
:10199000DF90CF90BF90AF907F906F905F904F900F
:1019A00008950895DB018F939F930E942F0DBF919F
:1019B000AF91A29F800D911DA39F900DB29F900D9E
:1019C00011240895991B79E004C0991F961708F017
:1019D000961B881F7A95C9F780950895A1E21A2E63
:1019E000AA1BBB1BFD010DC0AA1FBB1FEE1FFF1FC3
:1019F000A217B307E407F50720F0A21BB30BE40B13
:101A0000F50B661F771F881F991F1A9469F7609559
:101A10007095809590959B01AC01BD01CF01089513
:101A2000052E97FB1EF400940E94270D57FD07D04A
:101A30000E94EE0C07FC03D04EF40C94270D509539
:101A40004095309521953F4F4F4F5F4F08959095AA
:101A50008095709561957F4F8F4F9F4F08950E949D
:101A6000400DA59F900DB49F900DA49F800D911DDA
:101A700011240895EE0FFF1F0590F491E02D0994B5
:101A8000A29FB001B39FC001A39F700D811D1124BF
:101A9000911DB29F700D811D1124911D0895F9991A
:101AA000FECF92BD81BDF89A992780B50895262F63
:101AB000F999FECF1FBA92BD81BD20BD0FB6F89433
:0E1AC000FA9AF99A0FBE01960895F894FFCF96
:101ACE000100000031323341343536423738394364
:101ADE002A3023440E0F1011090A0B0C20202A2A3B
:101AEE0050415353574F52442A2A20005F5F5F5F85
:101AFE0000202020202020202020202020202020F8
:101B0E0020002020202020204552524F52202020FD
:101B1E00202020002020202020434F5252454354A5
:101B2E004F20202020202000274127207061726145
:101B3E0020696E74726F647500636972206C612027
:101B4E00706173732020202020202020002743273F
:101B5E0020706172612063616D6269617200206C38
:101B6E0061207061737320202020202020202020EF
:101B7E002020200043616D62696F206465207061D2
:101B8E0073732000496E74726F64756365207061A3
:101B9E007373202000616E746572696F722020204D
:101BAE00202020202000496E74726F6475636500DA
:101BBE006C612070617373206E75657661202020D4
:101BCE00202020202020202020005675656C766570
:101BDE00206120696E74726F2020202020006369BE
:101BEE00726C612020202020202020202020002028
:101BFE00202A2A50415353574F52442A2A2020203C
:101C0E0020202000436F6E7472617365C3B1612032
:101C1E0063616D20200062696164612020202020B4
:101C2E00202020202020004572726F72206C61737C
:101C3E002070617373202020006E6F20636F696EB9
:101C4E00636964656E2020202020202020005072C1
:101C5E006573696F6E6173746520440050726573AD
:101C6E00696F6E61737465202A0050726573696FB7
:101C7E006E6173746520230000000000CD03D10354
:0A1C8E00D503000000008B08430C92
:00000001FF
